{
  "contractName": "LipToken",
  "abi": [
    {
      "inputs": [
        {
          "internalType": "string",
          "name": "_name",
          "type": "string"
        },
        {
          "internalType": "string",
          "name": "_symbol",
          "type": "string"
        }
      ],
      "stateMutability": "nonpayable",
      "type": "constructor"
    },
    {
      "anonymous": false,
      "inputs": [
        {
          "indexed": true,
          "internalType": "address",
          "name": "owner",
          "type": "address"
        },
        {
          "indexed": true,
          "internalType": "address",
          "name": "approved",
          "type": "address"
        },
        {
          "indexed": true,
          "internalType": "uint256",
          "name": "tokenId",
          "type": "uint256"
        }
      ],
      "name": "Approval",
      "type": "event"
    },
    {
      "anonymous": false,
      "inputs": [
        {
          "indexed": true,
          "internalType": "address",
          "name": "owner",
          "type": "address"
        },
        {
          "indexed": true,
          "internalType": "address",
          "name": "operator",
          "type": "address"
        },
        {
          "indexed": false,
          "internalType": "bool",
          "name": "approved",
          "type": "bool"
        }
      ],
      "name": "ApprovalForAll",
      "type": "event"
    },
    {
      "anonymous": false,
      "inputs": [
        {
          "indexed": true,
          "internalType": "address",
          "name": "owner",
          "type": "address"
        },
        {
          "indexed": false,
          "internalType": "uint256",
          "name": "id",
          "type": "uint256"
        },
        {
          "indexed": false,
          "internalType": "uint256",
          "name": "dna",
          "type": "uint256"
        }
      ],
      "name": "NewLip",
      "type": "event"
    },
    {
      "anonymous": false,
      "inputs": [
        {
          "indexed": true,
          "internalType": "address",
          "name": "previousOwner",
          "type": "address"
        },
        {
          "indexed": true,
          "internalType": "address",
          "name": "newOwner",
          "type": "address"
        }
      ],
      "name": "OwnershipTransferred",
      "type": "event"
    },
    {
      "anonymous": false,
      "inputs": [
        {
          "indexed": true,
          "internalType": "address",
          "name": "from",
          "type": "address"
        },
        {
          "indexed": true,
          "internalType": "address",
          "name": "to",
          "type": "address"
        },
        {
          "indexed": true,
          "internalType": "uint256",
          "name": "tokenId",
          "type": "uint256"
        }
      ],
      "name": "Transfer",
      "type": "event"
    },
    {
      "inputs": [
        {
          "internalType": "address",
          "name": "to",
          "type": "address"
        },
        {
          "internalType": "uint256",
          "name": "tokenId",
          "type": "uint256"
        }
      ],
      "name": "approve",
      "outputs": [],
      "stateMutability": "nonpayable",
      "type": "function"
    },
    {
      "inputs": [
        {
          "internalType": "address",
          "name": "owner",
          "type": "address"
        }
      ],
      "name": "balanceOf",
      "outputs": [
        {
          "internalType": "uint256",
          "name": "",
          "type": "uint256"
        }
      ],
      "stateMutability": "view",
      "type": "function",
      "constant": true
    },
    {
      "inputs": [
        {
          "internalType": "uint256",
          "name": "tokenId",
          "type": "uint256"
        }
      ],
      "name": "getApproved",
      "outputs": [
        {
          "internalType": "address",
          "name": "",
          "type": "address"
        }
      ],
      "stateMutability": "view",
      "type": "function",
      "constant": true
    },
    {
      "inputs": [
        {
          "internalType": "address",
          "name": "owner",
          "type": "address"
        },
        {
          "internalType": "address",
          "name": "operator",
          "type": "address"
        }
      ],
      "name": "isApprovedForAll",
      "outputs": [
        {
          "internalType": "bool",
          "name": "",
          "type": "bool"
        }
      ],
      "stateMutability": "view",
      "type": "function",
      "constant": true
    },
    {
      "inputs": [
        {
          "internalType": "uint256",
          "name": "",
          "type": "uint256"
        }
      ],
      "name": "lips",
      "outputs": [
        {
          "internalType": "string",
          "name": "name",
          "type": "string"
        },
        {
          "internalType": "uint256",
          "name": "id",
          "type": "uint256"
        },
        {
          "internalType": "uint256",
          "name": "dna",
          "type": "uint256"
        },
        {
          "internalType": "uint256",
          "name": "level",
          "type": "uint256"
        },
        {
          "internalType": "uint8",
          "name": "rarity",
          "type": "uint8"
        },
        {
          "internalType": "string",
          "name": "sex",
          "type": "string"
        },
        {
          "internalType": "uint256",
          "name": "vida",
          "type": "uint256"
        },
        {
          "internalType": "uint256",
          "name": "habil",
          "type": "uint256"
        },
        {
          "internalType": "uint256",
          "name": "fuerza",
          "type": "uint256"
        },
        {
          "internalType": "uint256",
          "name": "defenza",
          "type": "uint256"
        },
        {
          "internalType": "uint256",
          "name": "poder",
          "type": "uint256"
        }
      ],
      "stateMutability": "view",
      "type": "function",
      "constant": true
    },
    {
      "inputs": [],
      "name": "name",
      "outputs": [
        {
          "internalType": "string",
          "name": "",
          "type": "string"
        }
      ],
      "stateMutability": "view",
      "type": "function",
      "constant": true
    },
    {
      "inputs": [],
      "name": "owner",
      "outputs": [
        {
          "internalType": "address",
          "name": "",
          "type": "address"
        }
      ],
      "stateMutability": "view",
      "type": "function",
      "constant": true
    },
    {
      "inputs": [
        {
          "internalType": "uint256",
          "name": "tokenId",
          "type": "uint256"
        }
      ],
      "name": "ownerOf",
      "outputs": [
        {
          "internalType": "address",
          "name": "",
          "type": "address"
        }
      ],
      "stateMutability": "view",
      "type": "function",
      "constant": true
    },
    {
      "inputs": [],
      "name": "renounceOwnership",
      "outputs": [],
      "stateMutability": "nonpayable",
      "type": "function"
    },
    {
      "inputs": [
        {
          "internalType": "address",
          "name": "from",
          "type": "address"
        },
        {
          "internalType": "address",
          "name": "to",
          "type": "address"
        },
        {
          "internalType": "uint256",
          "name": "tokenId",
          "type": "uint256"
        }
      ],
      "name": "safeTransferFrom",
      "outputs": [],
      "stateMutability": "nonpayable",
      "type": "function"
    },
    {
      "inputs": [
        {
          "internalType": "address",
          "name": "from",
          "type": "address"
        },
        {
          "internalType": "address",
          "name": "to",
          "type": "address"
        },
        {
          "internalType": "uint256",
          "name": "tokenId",
          "type": "uint256"
        },
        {
          "internalType": "bytes",
          "name": "_data",
          "type": "bytes"
        }
      ],
      "name": "safeTransferFrom",
      "outputs": [],
      "stateMutability": "nonpayable",
      "type": "function"
    },
    {
      "inputs": [
        {
          "internalType": "address",
          "name": "operator",
          "type": "address"
        },
        {
          "internalType": "bool",
          "name": "approved",
          "type": "bool"
        }
      ],
      "name": "setApprovalForAll",
      "outputs": [],
      "stateMutability": "nonpayable",
      "type": "function"
    },
    {
      "inputs": [
        {
          "internalType": "bytes4",
          "name": "interfaceId",
          "type": "bytes4"
        }
      ],
      "name": "supportsInterface",
      "outputs": [
        {
          "internalType": "bool",
          "name": "",
          "type": "bool"
        }
      ],
      "stateMutability": "view",
      "type": "function",
      "constant": true
    },
    {
      "inputs": [],
      "name": "symbol",
      "outputs": [
        {
          "internalType": "string",
          "name": "",
          "type": "string"
        }
      ],
      "stateMutability": "view",
      "type": "function",
      "constant": true
    },
    {
      "inputs": [
        {
          "internalType": "uint256",
          "name": "tokenId",
          "type": "uint256"
        }
      ],
      "name": "tokenURI",
      "outputs": [
        {
          "internalType": "string",
          "name": "",
          "type": "string"
        }
      ],
      "stateMutability": "view",
      "type": "function",
      "constant": true
    },
    {
      "inputs": [
        {
          "internalType": "address",
          "name": "from",
          "type": "address"
        },
        {
          "internalType": "address",
          "name": "to",
          "type": "address"
        },
        {
          "internalType": "uint256",
          "name": "tokenId",
          "type": "uint256"
        }
      ],
      "name": "transferFrom",
      "outputs": [],
      "stateMutability": "nonpayable",
      "type": "function"
    },
    {
      "inputs": [
        {
          "internalType": "address",
          "name": "newOwner",
          "type": "address"
        }
      ],
      "name": "transferOwnership",
      "outputs": [],
      "stateMutability": "nonpayable",
      "type": "function"
    },
    {
      "inputs": [
        {
          "internalType": "uint256",
          "name": "_fee",
          "type": "uint256"
        }
      ],
      "name": "updateFee",
      "outputs": [],
      "stateMutability": "nonpayable",
      "type": "function"
    },
    {
      "inputs": [],
      "name": "withdraw",
      "outputs": [],
      "stateMutability": "payable",
      "type": "function",
      "payable": true
    },
    {
      "inputs": [
        {
          "internalType": "string",
          "name": "_name",
          "type": "string"
        },
        {
          "internalType": "uint256",
          "name": "_cant",
          "type": "uint256"
        }
      ],
      "name": "createRandomLip",
      "outputs": [],
      "stateMutability": "payable",
      "type": "function",
      "payable": true
    },
    {
      "inputs": [],
      "name": "getLips",
      "outputs": [
        {
          "components": [
            {
              "internalType": "string",
              "name": "name",
              "type": "string"
            },
            {
              "internalType": "uint256",
              "name": "id",
              "type": "uint256"
            },
            {
              "internalType": "uint256",
              "name": "dna",
              "type": "uint256"
            },
            {
              "internalType": "uint256",
              "name": "level",
              "type": "uint256"
            },
            {
              "internalType": "uint8",
              "name": "rarity",
              "type": "uint8"
            },
            {
              "internalType": "string",
              "name": "sex",
              "type": "string"
            },
            {
              "internalType": "uint256",
              "name": "vida",
              "type": "uint256"
            },
            {
              "internalType": "uint256",
              "name": "habil",
              "type": "uint256"
            },
            {
              "internalType": "uint256",
              "name": "fuerza",
              "type": "uint256"
            },
            {
              "internalType": "uint256",
              "name": "defenza",
              "type": "uint256"
            },
            {
              "internalType": "uint256",
              "name": "poder",
              "type": "uint256"
            }
          ],
          "internalType": "struct LipToken.Lip[]",
          "name": "",
          "type": "tuple[]"
        }
      ],
      "stateMutability": "view",
      "type": "function",
      "constant": true
    },
    {
      "inputs": [],
      "name": "moneySmartContract",
      "outputs": [
        {
          "internalType": "uint256",
          "name": "",
          "type": "uint256"
        }
      ],
      "stateMutability": "view",
      "type": "function",
      "constant": true
    },
    {
      "inputs": [],
      "name": "addressSmartContract",
      "outputs": [
        {
          "internalType": "address",
          "name": "",
          "type": "address"
        }
      ],
      "stateMutability": "view",
      "type": "function",
      "constant": true
    },
    {
      "inputs": [
        {
          "internalType": "address",
          "name": "_owner",
          "type": "address"
        }
      ],
      "name": "getOwnerLips",
      "outputs": [
        {
          "components": [
            {
              "internalType": "string",
              "name": "name",
              "type": "string"
            },
            {
              "internalType": "uint256",
              "name": "id",
              "type": "uint256"
            },
            {
              "internalType": "uint256",
              "name": "dna",
              "type": "uint256"
            },
            {
              "internalType": "uint256",
              "name": "level",
              "type": "uint256"
            },
            {
              "internalType": "uint8",
              "name": "rarity",
              "type": "uint8"
            },
            {
              "internalType": "string",
              "name": "sex",
              "type": "string"
            },
            {
              "internalType": "uint256",
              "name": "vida",
              "type": "uint256"
            },
            {
              "internalType": "uint256",
              "name": "habil",
              "type": "uint256"
            },
            {
              "internalType": "uint256",
              "name": "fuerza",
              "type": "uint256"
            },
            {
              "internalType": "uint256",
              "name": "defenza",
              "type": "uint256"
            },
            {
              "internalType": "uint256",
              "name": "poder",
              "type": "uint256"
            }
          ],
          "internalType": "struct LipToken.Lip[]",
          "name": "",
          "type": "tuple[]"
        }
      ],
      "stateMutability": "view",
      "type": "function",
      "constant": true
    },
    {
      "inputs": [
        {
          "internalType": "uint256",
          "name": "_lipId",
          "type": "uint256"
        }
      ],
      "name": "levelUp",
      "outputs": [],
      "stateMutability": "payable",
      "type": "function",
      "payable": true
    },
    {
      "inputs": [
        {
          "internalType": "uint256",
          "name": "_lipId",
          "type": "uint256"
        }
      ],
      "name": "vidaUp",
      "outputs": [],
      "stateMutability": "payable",
      "type": "function",
      "payable": true
    },
    {
      "inputs": [
        {
          "internalType": "uint256",
          "name": "_lipId",
          "type": "uint256"
        }
      ],
      "name": "habilUp",
      "outputs": [],
      "stateMutability": "payable",
      "type": "function",
      "payable": true
    },
    {
      "inputs": [
        {
          "internalType": "uint256",
          "name": "_lipId",
          "type": "uint256"
        }
      ],
      "name": "fuerzaUp",
      "outputs": [],
      "stateMutability": "payable",
      "type": "function",
      "payable": true
    },
    {
      "inputs": [
        {
          "internalType": "uint256",
          "name": "_lipId",
          "type": "uint256"
        }
      ],
      "name": "defenzaUp",
      "outputs": [],
      "stateMutability": "payable",
      "type": "function",
      "payable": true
    },
    {
      "inputs": [
        {
          "internalType": "uint256",
          "name": "_lipId",
          "type": "uint256"
        }
      ],
      "name": "poderUp",
      "outputs": [],
      "stateMutability": "payable",
      "type": "function",
      "payable": true
    }
  ],
  "bytecode": "0x608060405266038d7ea4c680006008553480156200001c57600080fd5b5060405162004a2c38038062004a2c833981810160405281019062000042919062000290565b818181600090805190602001906200005c9291906200016e565b508060019080519060200190620000759291906200016e565b505050620000986200008c620000a060201b60201c565b620000a860201b60201c565b505062000473565b600033905090565b6000600660009054906101000a900473ffffffffffffffffffffffffffffffffffffffff16905081600660006101000a81548173ffffffffffffffffffffffffffffffffffffffff021916908373ffffffffffffffffffffffffffffffffffffffff1602179055508173ffffffffffffffffffffffffffffffffffffffff168173ffffffffffffffffffffffffffffffffffffffff167f8be0079c531659141344cd1fd0a4f28419497f9722a3daafe3b4186f6b6457e060405160405180910390a35050565b8280546200017c9062000398565b90600052602060002090601f016020900481019282620001a05760008555620001ec565b82601f10620001bb57805160ff1916838001178555620001ec565b82800160010185558215620001ec579182015b82811115620001eb578251825591602001919060010190620001ce565b5b509050620001fb9190620001ff565b5090565b5b808211156200021a57600081600090555060010162000200565b5090565b6000620002356200022f846200032c565b62000303565b9050828152602081018484840111156200024e57600080fd5b6200025b84828562000362565b509392505050565b600082601f8301126200027557600080fd5b8151620002878482602086016200021e565b91505092915050565b60008060408385031215620002a457600080fd5b600083015167ffffffffffffffff811115620002bf57600080fd5b620002cd8582860162000263565b925050602083015167ffffffffffffffff811115620002eb57600080fd5b620002f98582860162000263565b9150509250929050565b60006200030f62000322565b90506200031d8282620003ce565b919050565b6000604051905090565b600067ffffffffffffffff8211156200034a576200034962000433565b5b620003558262000462565b9050602081019050919050565b60005b838110156200038257808201518184015260208101905062000365565b8381111562000392576000848401525b50505050565b60006002820490506001821680620003b157607f821691505b60208210811415620003c857620003c762000404565b5b50919050565b620003d98262000462565b810181811067ffffffffffffffff82111715620003fb57620003fa62000433565b5b80604052505050565b7f4e487b7100000000000000000000000000000000000000000000000000000000600052602260045260246000fd5b7f4e487b7100000000000000000000000000000000000000000000000000000000600052604160045260246000fd5b6000601f19601f8301169050919050565b6145a980620004836000396000f3fe6080604052600436106101cd5760003560e01c80637f9b0ff0116100f7578063a22cb46511610095578063c87b56dd11610064578063c87b56dd1461060b578063dd7c175714610648578063e985e9c514610664578063f2fde38b146106a1576101cd565b8063a22cb46514610572578063a8f4bfe81461059b578063b88d4fde146105b7578063c2f5168a146105e0576101cd565b80638da5cb5b116100d15780638da5cb5b146104c85780639012c4a8146104f357806395d89b411461051c57806399470ee614610547576101cd565b80637f9b0ff01461044457806383b5daf7146104605780638c0b9c541461048b576101cd565b8063304b1e2e1161016f5780635f3a26e41161013e5780635f3a26e4146103975780636352211e146103b357806370a08231146103f0578063715018a61461042d576101cd565b8063304b1e2e146103015780633ccfd60b1461031d57806342842e0e146103275780635ec163db14610350576101cd565b8063095ea7b3116101ab578063095ea7b3146102775780630ce90ec2146102a05780630d5d53ba146102bc57806323b872dd146102d8576101cd565b806301ffc9a7146101d257806306fdde031461020f578063081812fc1461023a575b600080fd5b3480156101de57600080fd5b506101f960048036038101906101f4919061318d565b6106ca565b6040516102069190613848565b60405180910390f35b34801561021b57600080fd5b506102246107ac565b6040516102319190613863565b60405180910390f35b34801561024657600080fd5b50610261600480360381019061025c9190613233565b61083e565b60405161026e91906137bf565b60405180910390f35b34801561028357600080fd5b5061029e60048036038101906102999190613151565b6108c3565b005b6102ba60048036038101906102b59190613233565b6109db565b005b6102d660048036038101906102d19190613233565b610a94565b005b3480156102e457600080fd5b506102ff60048036038101906102fa919061304b565b610b52565b005b61031b60048036038101906103169190613233565b610bb2565b005b610325610c70565b005b34801561033357600080fd5b5061034e6004803603810190610349919061304b565b610d42565b005b34801561035c57600080fd5b5061037760048036038101906103729190613233565b610d62565b60405161038e9b9a99989796959493929190613885565b60405180910390f35b6103b160048036038101906103ac9190613233565b610ee9565b005b3480156103bf57600080fd5b506103da60048036038101906103d59190613233565b610fa7565b6040516103e791906137bf565b60405180910390f35b3480156103fc57600080fd5b5061041760048036038101906104129190612fe6565b611059565b6040516104249190613b3e565b60405180910390f35b34801561043957600080fd5b50610442611111565b005b61045e600480360381019061045991906131df565b611199565b005b34801561046c57600080fd5b506104756111b6565b6040516104829190613826565b60405180910390f35b34801561049757600080fd5b506104b260048036038101906104ad9190612fe6565b6113a7565b6040516104bf9190613826565b60405180910390f35b3480156104d457600080fd5b506104dd6116d2565b6040516104ea91906137bf565b60405180910390f35b3480156104ff57600080fd5b5061051a60048036038101906105159190613233565b6116fc565b005b34801561052857600080fd5b50610531611782565b60405161053e9190613863565b60405180910390f35b34801561055357600080fd5b5061055c611814565b6040516105699190613b3e565b60405180910390f35b34801561057e57600080fd5b5061059960048036038101906105949190613115565b61181c565b005b6105b560048036038101906105b09190613233565b611832565b005b3480156105c357600080fd5b506105de60048036038101906105d9919061309a565b6118f0565b005b3480156105ec57600080fd5b506105f5611952565b60405161060291906137bf565b60405180910390f35b34801561061757600080fd5b50610632600480360381019061062d9190613233565b61195a565b60405161063f9190613863565b60405180910390f35b610662600480360381019061065d9190613233565b611a01565b005b34801561067057600080fd5b5061068b6004803603810190610686919061300f565b611abf565b6040516106989190613848565b60405180910390f35b3480156106ad57600080fd5b506106c860048036038101906106c39190612fe6565b611b53565b005b60007f80ac58cd000000000000000000000000000000000000000000000000000000007bffffffffffffffffffffffffffffffffffffffffffffffffffffffff1916827bffffffffffffffffffffffffffffffffffffffffffffffffffffffff1916148061079557507f5b5e139f000000000000000000000000000000000000000000000000000000007bffffffffffffffffffffffffffffffffffffffffffffffffffffffff1916827bffffffffffffffffffffffffffffffffffffffffffffffffffffffff1916145b806107a557506107a482611c4b565b5b9050919050565b6060600080546107bb90613eda565b80601f01602080910402602001604051908101604052809291908181526020018280546107e790613eda565b80156108345780601f1061080957610100808354040283529160200191610834565b820191906000526020600020905b81548152906001019060200180831161081757829003601f168201915b5050505050905090565b600061084982611cb5565b610888576040517f08c379a000000000000000000000000000000000000000000000000000000000815260040161087f90613a7e565b60405180910390fd5b6004600083815260200190815260200160002060009054906101000a900473ffffffffffffffffffffffffffffffffffffffff169050919050565b60006108ce82610fa7565b90508073ffffffffffffffffffffffffffffffffffffffff168373ffffffffffffffffffffffffffffffffffffffff16141561093f576040517f08c379a000000000000000000000000000000000000000000000000000000000815260040161093690613afe565b60405180910390fd5b8073ffffffffffffffffffffffffffffffffffffffff1661095e611d21565b73ffffffffffffffffffffffffffffffffffffffff16148061098d575061098c81610987611d21565b611abf565b5b6109cc576040517f08c379a00000000000000000000000000000000000000000000000000000000081526004016109c3906139fe565b60405180910390fd5b6109d68383611d29565b505050565b3373ffffffffffffffffffffffffffffffffffffffff166109fb82610fa7565b73ffffffffffffffffffffffffffffffffffffffff1614610a1b57600080fd5b600854341015610a2a57600080fd5b6000600c8281548110610a66577f4e487b7100000000000000000000000000000000000000000000000000000000600052603260045260246000fd5b90600052602060002090600b02019050806003016000815480929190610a8b90613f3d565b91905055505050565b3373ffffffffffffffffffffffffffffffffffffffff16610ab482610fa7565b73ffffffffffffffffffffffffffffffffffffffff1614610ad457600080fd5b600854341015610ae357600080fd5b6000600c8281548110610b1f577f4e487b7100000000000000000000000000000000000000000000000000000000600052603260045260246000fd5b90600052602060002090600b02019050600060059050808260080154610b459190613c96565b8260080181905550505050565b610b63610b5d611d21565b82611de2565b610ba2576040517f08c379a0000000000000000000000000000000000000000000000000000000008152600401610b9990613b1e565b60405180910390fd5b610bad838383611ec0565b505050565b3373ffffffffffffffffffffffffffffffffffffffff16610bd282610fa7565b73ffffffffffffffffffffffffffffffffffffffff1614610bf257600080fd5b600854341015610c0157600080fd5b6000600c8281548110610c3d577f4e487b7100000000000000000000000000000000000000000000000000000000600052603260045260246000fd5b90600052602060002090600b02019050600060039050808260090154610c639190613c96565b8260090181905550505050565b610c78611d21565b73ffffffffffffffffffffffffffffffffffffffff16610c966116d2565b73ffffffffffffffffffffffffffffffffffffffff1614610cec576040517f08c379a0000000000000000000000000000000000000000000000000000000008152600401610ce390613a9e565b60405180910390fd5b6000610cf66116d2565b90508073ffffffffffffffffffffffffffffffffffffffff166108fc479081150290604051600060405180830381858888f19350505050158015610d3e573d6000803e3d6000fd5b5050565b610d5d838383604051806020016040528060008152506118f0565b505050565b600c8181548110610d7257600080fd5b90600052602060002090600b0201600091509050806000018054610d9590613eda565b80601f0160208091040260200160405190810160405280929190818152602001828054610dc190613eda565b8015610e0e5780601f10610de357610100808354040283529160200191610e0e565b820191906000526020600020905b815481529060010190602001808311610df157829003601f168201915b5050505050908060010154908060020154908060030154908060040160009054906101000a900460ff1690806005018054610e4890613eda565b80601f0160208091040260200160405190810160405280929190818152602001828054610e7490613eda565b8015610ec15780601f10610e9657610100808354040283529160200191610ec1565b820191906000526020600020905b815481529060010190602001808311610ea457829003601f168201915b50505050509080600601549080600701549080600801549080600901549080600a015490508b565b3373ffffffffffffffffffffffffffffffffffffffff16610f0982610fa7565b73ffffffffffffffffffffffffffffffffffffffff1614610f2957600080fd5b600854341015610f3857600080fd5b6000600c8281548110610f74577f4e487b7100000000000000000000000000000000000000000000000000000000600052603260045260246000fd5b90600052602060002090600b02019050600060039050808260070154610f9a9190613c96565b8260070181905550505050565b6000806002600084815260200190815260200160002060009054906101000a900473ffffffffffffffffffffffffffffffffffffffff169050600073ffffffffffffffffffffffffffffffffffffffff168173ffffffffffffffffffffffffffffffffffffffff161415611050576040517f08c379a000000000000000000000000000000000000000000000000000000000815260040161104790613a3e565b60405180910390fd5b80915050919050565b60008073ffffffffffffffffffffffffffffffffffffffff168273ffffffffffffffffffffffffffffffffffffffff1614156110ca576040517f08c379a00000000000000000000000000000000000000000000000000000000081526004016110c190613a1e565b60405180910390fd5b600360008373ffffffffffffffffffffffffffffffffffffffff1673ffffffffffffffffffffffffffffffffffffffff168152602001908152602001600020549050919050565b611119611d21565b73ffffffffffffffffffffffffffffffffffffffff166111376116d2565b73ffffffffffffffffffffffffffffffffffffffff161461118d576040517f08c379a000000000000000000000000000000000000000000000000000000000815260040161118490613a9e565b60405180910390fd5b611197600061211c565b565b6008543410156111a857600080fd5b6111b282826121e2565b5050565b6060600c805480602002602001604051908101604052809291908181526020016000905b8282101561139e57838290600052602060002090600b02016040518061016001604052908160008201805461120e90613eda565b80601f016020809104026020016040519081016040528092919081815260200182805461123a90613eda565b80156112875780601f1061125c57610100808354040283529160200191611287565b820191906000526020600020905b81548152906001019060200180831161126a57829003601f168201915b505050505081526020016001820154815260200160028201548152602001600382015481526020016004820160009054906101000a900460ff1660ff1660ff1681526020016005820180546112db90613eda565b80601f016020809104026020016040519081016040528092919081815260200182805461130790613eda565b80156113545780601f1061132957610100808354040283529160200191611354565b820191906000526020600020905b81548152906001019060200180831161133757829003601f168201915b5050505050815260200160068201548152602001600782015481526020016008820154815260200160098201548152602001600a82015481525050815260200190600101906111da565b50505050905090565b606060006113b483611059565b67ffffffffffffffff8111156113f3577f4e487b7100000000000000000000000000000000000000000000000000000000600052604160045260246000fd5b60405190808252806020026020018201604052801561142c57816020015b611419612dad565b8152602001906001900390816114115790505b5090506000805b600c805490508110156116c7578473ffffffffffffffffffffffffffffffffffffffff1661146082610fa7565b73ffffffffffffffffffffffffffffffffffffffff1614156116b457600c81815481106114b6577f4e487b7100000000000000000000000000000000000000000000000000000000600052603260045260246000fd5b90600052602060002090600b0201604051806101600160405290816000820180546114e090613eda565b80601f016020809104026020016040519081016040528092919081815260200182805461150c90613eda565b80156115595780601f1061152e57610100808354040283529160200191611559565b820191906000526020600020905b81548152906001019060200180831161153c57829003601f168201915b505050505081526020016001820154815260200160028201548152602001600382015481526020016004820160009054906101000a900460ff1660ff1660ff1681526020016005820180546115ad90613eda565b80601f01602080910402602001604051908101604052809291908181526020018280546115d990613eda565b80156116265780601f106115fb57610100808354040283529160200191611626565b820191906000526020600020905b81548152906001019060200180831161160957829003601f168201915b5050505050815260200160068201548152602001600782015481526020016008820154815260200160098201548152602001600a8201548152505083838151811061169a577f4e487b7100000000000000000000000000000000000000000000000000000000600052603260045260246000fd5b602002602001018190525081806116b090613f3d565b9250505b80806116bf90613f3d565b915050611433565b508192505050919050565b6000600660009054906101000a900473ffffffffffffffffffffffffffffffffffffffff16905090565b611704611d21565b73ffffffffffffffffffffffffffffffffffffffff166117226116d2565b73ffffffffffffffffffffffffffffffffffffffff1614611778576040517f08c379a000000000000000000000000000000000000000000000000000000000815260040161176f90613a9e565b60405180910390fd5b8060088190555050565b60606001805461179190613eda565b80601f01602080910402602001604051908101604052809291908181526020018280546117bd90613eda565b801561180a5780601f106117df5761010080835404028352916020019161180a565b820191906000526020600020905b8154815290600101906020018083116117ed57829003601f168201915b5050505050905090565b600047905090565b61182e611827611d21565b83836125e5565b5050565b3373ffffffffffffffffffffffffffffffffffffffff1661185282610fa7565b73ffffffffffffffffffffffffffffffffffffffff161461187257600080fd5b60085434101561188157600080fd5b6000600c82815481106118bd577f4e487b7100000000000000000000000000000000000000000000000000000000600052603260045260246000fd5b90600052602060002090600b020190506000600a90508082600a01546118e39190613c96565b82600a0181905550505050565b6119016118fb611d21565b83611de2565b611940576040517f08c379a000000000000000000000000000000000000000000000000000000000815260040161193790613b1e565b60405180910390fd5b61194c84848484612752565b50505050565b600030905090565b606061196582611cb5565b6119a4576040517f08c379a000000000000000000000000000000000000000000000000000000000815260040161199b90613ade565b60405180910390fd5b60006119ae6127ae565b905060008151116119ce57604051806020016040528060008152506119f9565b806119d8846127c5565b6040516020016119e992919061376f565b6040516020818303038152906040525b915050919050565b3373ffffffffffffffffffffffffffffffffffffffff16611a2182610fa7565b73ffffffffffffffffffffffffffffffffffffffff1614611a4157600080fd5b600854341015611a5057600080fd5b6000600c8281548110611a8c577f4e487b7100000000000000000000000000000000000000000000000000000000600052603260045260246000fd5b90600052602060002090600b020190506000600f9050808260060154611ab29190613c96565b8260060181905550505050565b6000600560008473ffffffffffffffffffffffffffffffffffffffff1673ffffffffffffffffffffffffffffffffffffffff16815260200190815260200160002060008373ffffffffffffffffffffffffffffffffffffffff1673ffffffffffffffffffffffffffffffffffffffff16815260200190815260200160002060009054906101000a900460ff16905092915050565b611b5b611d21565b73ffffffffffffffffffffffffffffffffffffffff16611b796116d2565b73ffffffffffffffffffffffffffffffffffffffff1614611bcf576040517f08c379a0000000000000000000000000000000000000000000000000000000008152600401611bc690613a9e565b60405180910390fd5b600073ffffffffffffffffffffffffffffffffffffffff168173ffffffffffffffffffffffffffffffffffffffff161415611c3f576040517f08c379a0000000000000000000000000000000000000000000000000000000008152600401611c369061395e565b60405180910390fd5b611c488161211c565b50565b60007f01ffc9a7000000000000000000000000000000000000000000000000000000007bffffffffffffffffffffffffffffffffffffffffffffffffffffffff1916827bffffffffffffffffffffffffffffffffffffffffffffffffffffffff1916149050919050565b60008073ffffffffffffffffffffffffffffffffffffffff166002600084815260200190815260200160002060009054906101000a900473ffffffffffffffffffffffffffffffffffffffff1673ffffffffffffffffffffffffffffffffffffffff1614159050919050565b600033905090565b816004600083815260200190815260200160002060006101000a81548173ffffffffffffffffffffffffffffffffffffffff021916908373ffffffffffffffffffffffffffffffffffffffff160217905550808273ffffffffffffffffffffffffffffffffffffffff16611d9c83610fa7565b73ffffffffffffffffffffffffffffffffffffffff167f8c5be1e5ebec7d5bd14f71427d1e84f3dd0314c0f7b2291e5b200ac8c7c3b92560405160405180910390a45050565b6000611ded82611cb5565b611e2c576040517f08c379a0000000000000000000000000000000000000000000000000000000008152600401611e23906139de565b60405180910390fd5b6000611e3783610fa7565b90508073ffffffffffffffffffffffffffffffffffffffff168473ffffffffffffffffffffffffffffffffffffffff161480611ea657508373ffffffffffffffffffffffffffffffffffffffff16611e8e8461083e565b73ffffffffffffffffffffffffffffffffffffffff16145b80611eb75750611eb68185611abf565b5b91505092915050565b8273ffffffffffffffffffffffffffffffffffffffff16611ee082610fa7565b73ffffffffffffffffffffffffffffffffffffffff1614611f36576040517f08c379a0000000000000000000000000000000000000000000000000000000008152600401611f2d90613abe565b60405180910390fd5b600073ffffffffffffffffffffffffffffffffffffffff168273ffffffffffffffffffffffffffffffffffffffff161415611fa6576040517f08c379a0000000000000000000000000000000000000000000000000000000008152600401611f9d9061399e565b60405180910390fd5b611fb1838383612972565b611fbc600082611d29565b6001600360008573ffffffffffffffffffffffffffffffffffffffff1673ffffffffffffffffffffffffffffffffffffffff168152602001908152602001600020600082825461200c9190613de3565b925050819055506001600360008473ffffffffffffffffffffffffffffffffffffffff1673ffffffffffffffffffffffffffffffffffffffff16815260200190815260200160002060008282546120639190613c96565b92505081905550816002600083815260200190815260200160002060006101000a81548173ffffffffffffffffffffffffffffffffffffffff021916908373ffffffffffffffffffffffffffffffffffffffff160217905550808273ffffffffffffffffffffffffffffffffffffffff168473ffffffffffffffffffffffffffffffffffffffff167fddf252ad1be2c89b69c2b068fc378daa952ba7f163c4a11628f55a4df523b3ef60405160405180910390a4505050565b6000600660009054906101000a900473ffffffffffffffffffffffffffffffffffffffff16905081600660006101000a81548173ffffffffffffffffffffffffffffffffffffffff021916908373ffffffffffffffffffffffffffffffffffffffff1602179055508173ffffffffffffffffffffffffffffffffffffffff168173ffffffffffffffffffffffffffffffffffffffff167f8be0079c531659141344cd1fd0a4f28419497f9722a3daafe3b4186f6b6457e060405160405180910390a35050565b80600b8190555060006121fb662386f26fc10000612977565b905060006122096064612977565b90506000612218610441612977565b905060006305f5e1004261222c9190613cec565b905060005b600b5481116125dc576007826122479190613d4e565b91506023856122569190613d4e565b94506003846122659190613da8565b93506000600a54141561227b576001600a819055505b600060028461228a9190613fb4565b14156122e1576040518060400160405280600181526020017f4600000000000000000000000000000000000000000000000000000000000000815250600990805190602001906122db929190612e0a565b5061232e565b6040518060400160405280600181526020017f4d000000000000000000000000000000000000000000000000000000000000008152506009908051906020019061232c929190612e0a565b505b60006005905060006005905060006005905060006005905060006040518061016001604052808d815260200160075481526020018b8152602001600a5481526020018a60ff1681526020016009805461238690613eda565b80601f01602080910402602001604051908101604052809291908181526020018280546123b290613eda565b80156123ff5780601f106123d4576101008083540402835291602001916123ff565b820191906000526020600020905b8154815290600101906020018083116123e257829003601f168201915b50505050508152602001888152602001868152602001858152602001848152602001838152509050600c8190806001815401808255809150506001900390600052602060002090600b0201600090919091909150600082015181600001908051906020019061246f929190612e0a565b5060208201518160010155604082015181600201556060820151816003015560808201518160040160006101000a81548160ff021916908360ff16021790555060a08201518160050190805190602001906124cb929190612e0a565b5060c0820151816006015560e082015181600701556101008201518160080155610120820151816009015561014082015181600a0155505061250f336007546129bc565b3373ffffffffffffffffffffffffffffffffffffffff167f24d2d558f98bdd9d21339e119fc0b03e213c7d05affd838ac2ee136d90e3bbeb6007548c604051612559929190613b59565b60405180910390a2600f8761256e9190613cec565b965060198a61257d9190613cec565b995060078a61258c9190613d4e565b9950600760008154809291906125a190613f3d565b9190505550600a896125b39190613d1d565b98506005896125c29190613d1d565b9850505050505080806125d490613f3d565b915050612231565b50505050505050565b8173ffffffffffffffffffffffffffffffffffffffff168373ffffffffffffffffffffffffffffffffffffffff161415612654576040517f08c379a000000000000000000000000000000000000000000000000000000000815260040161264b906139be565b60405180910390fd5b80600560008573ffffffffffffffffffffffffffffffffffffffff1673ffffffffffffffffffffffffffffffffffffffff16815260200190815260200160002060008473ffffffffffffffffffffffffffffffffffffffff1673ffffffffffffffffffffffffffffffffffffffff16815260200190815260200160002060006101000a81548160ff0219169083151502179055508173ffffffffffffffffffffffffffffffffffffffff168373ffffffffffffffffffffffffffffffffffffffff167f17307eab39ab6107e8899845ad3d59bd9653f200f220920489ca2b5937696c31836040516127459190613848565b60405180910390a3505050565b61275d848484611ec0565b612769848484846129da565b6127a8576040517f08c379a000000000000000000000000000000000000000000000000000000000815260040161279f9061393e565b60405180910390fd5b50505050565b606060405180602001604052806000815250905090565b6060600082141561280d576040518060400160405280600181526020017f3000000000000000000000000000000000000000000000000000000000000000815250905061296d565b600082905060005b6000821461283f57808061282890613f3d565b915050600a826128389190613cec565b9150612815565b60008167ffffffffffffffff811115612881577f4e487b7100000000000000000000000000000000000000000000000000000000600052604160045260246000fd5b6040519080825280601f01601f1916602001820160405280156128b35781602001600182028036833780820191505090505b5090505b60008514612966576001826128cc9190613de3565b9150600a856128db9190613fb4565b60306128e79190613c96565b60f81b818381518110612923577f4e487b7100000000000000000000000000000000000000000000000000000000600052603260045260246000fd5b60200101907effffffffffffffffffffffffffffffffffffffffffffffffffffffffffffff1916908160001a905350600a8561295f9190613cec565b94506128b7565b8093505050505b919050565b505050565b600080423360405160200161298d929190613793565b6040516020818303038152906040528051906020012060001c905082816129b49190613fb4565b915050919050565b6129d6828260405180602001604052806000815250612b71565b5050565b60006129fb8473ffffffffffffffffffffffffffffffffffffffff16612bcc565b15612b64578373ffffffffffffffffffffffffffffffffffffffff1663150b7a02612a24611d21565b8786866040518563ffffffff1660e01b8152600401612a4694939291906137da565b602060405180830381600087803b158015612a6057600080fd5b505af1925050508015612a9157506040513d601f19601f82011682018060405250810190612a8e91906131b6565b60015b612b14573d8060008114612ac1576040519150601f19603f3d011682016040523d82523d6000602084013e612ac6565b606091505b50600081511415612b0c576040517f08c379a0000000000000000000000000000000000000000000000000000000008152600401612b039061393e565b60405180910390fd5b805181602001fd5b63150b7a0260e01b7bffffffffffffffffffffffffffffffffffffffffffffffffffffffff1916817bffffffffffffffffffffffffffffffffffffffffffffffffffffffff191614915050612b69565b600190505b949350505050565b612b7b8383612bdf565b612b8860008484846129da565b612bc7576040517f08c379a0000000000000000000000000000000000000000000000000000000008152600401612bbe9061393e565b60405180910390fd5b505050565b600080823b905060008111915050919050565b600073ffffffffffffffffffffffffffffffffffffffff168273ffffffffffffffffffffffffffffffffffffffff161415612c4f576040517f08c379a0000000000000000000000000000000000000000000000000000000008152600401612c4690613a5e565b60405180910390fd5b612c5881611cb5565b15612c98576040517f08c379a0000000000000000000000000000000000000000000000000000000008152600401612c8f9061397e565b60405180910390fd5b612ca460008383612972565b6001600360008473ffffffffffffffffffffffffffffffffffffffff1673ffffffffffffffffffffffffffffffffffffffff1681526020019081526020016000206000828254612cf49190613c96565b92505081905550816002600083815260200190815260200160002060006101000a81548173ffffffffffffffffffffffffffffffffffffffff021916908373ffffffffffffffffffffffffffffffffffffffff160217905550808273ffffffffffffffffffffffffffffffffffffffff16600073ffffffffffffffffffffffffffffffffffffffff167fddf252ad1be2c89b69c2b068fc378daa952ba7f163c4a11628f55a4df523b3ef60405160405180910390a45050565b60405180610160016040528060608152602001600081526020016000815260200160008152602001600060ff1681526020016060815260200160008152602001600081526020016000815260200160008152602001600081525090565b828054612e1690613eda565b90600052602060002090601f016020900481019282612e385760008555612e7f565b82601f10612e5157805160ff1916838001178555612e7f565b82800160010185558215612e7f579182015b82811115612e7e578251825591602001919060010190612e63565b5b509050612e8c9190612e90565b5090565b5b80821115612ea9576000816000905550600101612e91565b5090565b6000612ec0612ebb84613ba7565b613b82565b905082815260208101848484011115612ed857600080fd5b612ee3848285613e98565b509392505050565b6000612efe612ef984613bd8565b613b82565b905082815260208101848484011115612f1657600080fd5b612f21848285613e98565b509392505050565b600081359050612f3881614517565b92915050565b600081359050612f4d8161452e565b92915050565b600081359050612f6281614545565b92915050565b600081519050612f7781614545565b92915050565b600082601f830112612f8e57600080fd5b8135612f9e848260208601612ead565b91505092915050565b600082601f830112612fb857600080fd5b8135612fc8848260208601612eeb565b91505092915050565b600081359050612fe08161455c565b92915050565b600060208284031215612ff857600080fd5b600061300684828501612f29565b91505092915050565b6000806040838503121561302257600080fd5b600061303085828601612f29565b925050602061304185828601612f29565b9150509250929050565b60008060006060848603121561306057600080fd5b600061306e86828701612f29565b935050602061307f86828701612f29565b925050604061309086828701612fd1565b9150509250925092565b600080600080608085870312156130b057600080fd5b60006130be87828801612f29565b94505060206130cf87828801612f29565b93505060406130e087828801612fd1565b925050606085013567ffffffffffffffff8111156130fd57600080fd5b61310987828801612f7d565b91505092959194509250565b6000806040838503121561312857600080fd5b600061313685828601612f29565b925050602061314785828601612f3e565b9150509250929050565b6000806040838503121561316457600080fd5b600061317285828601612f29565b925050602061318385828601612fd1565b9150509250929050565b60006020828403121561319f57600080fd5b60006131ad84828501612f53565b91505092915050565b6000602082840312156131c857600080fd5b60006131d684828501612f68565b91505092915050565b600080604083850312156131f257600080fd5b600083013567ffffffffffffffff81111561320c57600080fd5b61321885828601612fa7565b925050602061322985828601612fd1565b9150509250929050565b60006020828403121561324557600080fd5b600061325384828501612fd1565b91505092915050565b60006132688383613626565b905092915050565b61327981613e17565b82525050565b61329061328b82613e17565b613f86565b82525050565b60006132a182613c19565b6132ab8185613c47565b9350836020820285016132bd85613c09565b8060005b858110156132f957848403895281516132da858261325c565b94506132e583613c3a565b925060208a019950506001810190506132c1565b50829750879550505050505092915050565b61331481613e29565b82525050565b600061332582613c24565b61332f8185613c58565b935061333f818560208601613ea7565b613348816140a1565b840191505092915050565b600061335e82613c2f565b6133688185613c69565b9350613378818560208601613ea7565b613381816140a1565b840191505092915050565b600061339782613c2f565b6133a18185613c7a565b93506133b1818560208601613ea7565b6133ba816140a1565b840191505092915050565b60006133d082613c2f565b6133da8185613c8b565b93506133ea818560208601613ea7565b80840191505092915050565b6000613403603283613c7a565b915061340e826140bf565b604082019050919050565b6000613426602683613c7a565b91506134318261410e565b604082019050919050565b6000613449601c83613c7a565b91506134548261415d565b602082019050919050565b600061346c602483613c7a565b915061347782614186565b604082019050919050565b600061348f601983613c7a565b915061349a826141d5565b602082019050919050565b60006134b2602c83613c7a565b91506134bd826141fe565b604082019050919050565b60006134d5603883613c7a565b91506134e08261424d565b604082019050919050565b60006134f8602a83613c7a565b91506135038261429c565b604082019050919050565b600061351b602983613c7a565b9150613526826142eb565b604082019050919050565b600061353e602083613c7a565b91506135498261433a565b602082019050919050565b6000613561602c83613c7a565b915061356c82614363565b604082019050919050565b6000613584602083613c7a565b915061358f826143b2565b602082019050919050565b60006135a7602983613c7a565b91506135b2826143db565b604082019050919050565b60006135ca602f83613c7a565b91506135d58261442a565b604082019050919050565b60006135ed602183613c7a565b91506135f882614479565b604082019050919050565b6000613610603183613c7a565b915061361b826144c8565b604082019050919050565b60006101608301600083015184820360008601526136448282613353565b9150506020830151613659602086018261371c565b50604083015161366c604086018261371c565b50606083015161367f606086018261371c565b5060808301516136926080860182613751565b5060a083015184820360a08601526136aa8282613353565b91505060c08301516136bf60c086018261371c565b5060e08301516136d260e086018261371c565b506101008301516136e761010086018261371c565b506101208301516136fc61012086018261371c565b5061014083015161371161014086018261371c565b508091505092915050565b61372581613e81565b82525050565b61373481613e81565b82525050565b61374b61374682613e81565b613faa565b82525050565b61375a81613e8b565b82525050565b61376981613e8b565b82525050565b600061377b82856133c5565b915061378782846133c5565b91508190509392505050565b600061379f828561373a565b6020820191506137af828461327f565b6014820191508190509392505050565b60006020820190506137d46000830184613270565b92915050565b60006080820190506137ef6000830187613270565b6137fc6020830186613270565b613809604083018561372b565b818103606083015261381b818461331a565b905095945050505050565b600060208201905081810360008301526138408184613296565b905092915050565b600060208201905061385d600083018461330b565b92915050565b6000602082019050818103600083015261387d818461338c565b905092915050565b60006101608201905081810360008301526138a0818e61338c565b90506138af602083018d61372b565b6138bc604083018c61372b565b6138c9606083018b61372b565b6138d6608083018a613760565b81810360a08301526138e8818961338c565b90506138f760c083018861372b565b61390460e083018761372b565b61391261010083018661372b565b61392061012083018561372b565b61392e61014083018461372b565b9c9b505050505050505050505050565b60006020820190508181036000830152613957816133f6565b9050919050565b6000602082019050818103600083015261397781613419565b9050919050565b600060208201905081810360008301526139978161343c565b9050919050565b600060208201905081810360008301526139b78161345f565b9050919050565b600060208201905081810360008301526139d781613482565b9050919050565b600060208201905081810360008301526139f7816134a5565b9050919050565b60006020820190508181036000830152613a17816134c8565b9050919050565b60006020820190508181036000830152613a37816134eb565b9050919050565b60006020820190508181036000830152613a578161350e565b9050919050565b60006020820190508181036000830152613a7781613531565b9050919050565b60006020820190508181036000830152613a9781613554565b9050919050565b60006020820190508181036000830152613ab781613577565b9050919050565b60006020820190508181036000830152613ad78161359a565b9050919050565b60006020820190508181036000830152613af7816135bd565b9050919050565b60006020820190508181036000830152613b17816135e0565b9050919050565b60006020820190508181036000830152613b3781613603565b9050919050565b6000602082019050613b53600083018461372b565b92915050565b6000604082019050613b6e600083018561372b565b613b7b602083018461372b565b9392505050565b6000613b8c613b9d565b9050613b988282613f0c565b919050565b6000604051905090565b600067ffffffffffffffff821115613bc257613bc1614072565b5b613bcb826140a1565b9050602081019050919050565b600067ffffffffffffffff821115613bf357613bf2614072565b5b613bfc826140a1565b9050602081019050919050565b6000819050602082019050919050565b600081519050919050565b600081519050919050565b600081519050919050565b6000602082019050919050565b600082825260208201905092915050565b600082825260208201905092915050565b600082825260208201905092915050565b600082825260208201905092915050565b600081905092915050565b6000613ca182613e81565b9150613cac83613e81565b9250827fffffffffffffffffffffffffffffffffffffffffffffffffffffffffffffffff03821115613ce157613ce0613fe5565b5b828201905092915050565b6000613cf782613e81565b9150613d0283613e81565b925082613d1257613d11614014565b5b828204905092915050565b6000613d2882613e8b565b9150613d3383613e8b565b925082613d4357613d42614014565b5b828204905092915050565b6000613d5982613e81565b9150613d6483613e81565b9250817fffffffffffffffffffffffffffffffffffffffffffffffffffffffffffffffff0483118215151615613d9d57613d9c613fe5565b5b828202905092915050565b6000613db382613e8b565b9150613dbe83613e8b565b92508160ff0483118215151615613dd857613dd7613fe5565b5b828202905092915050565b6000613dee82613e81565b9150613df983613e81565b925082821015613e0c57613e0b613fe5565b5b828203905092915050565b6000613e2282613e61565b9050919050565b60008115159050919050565b60007fffffffff0000000000000000000000000000000000000000000000000000000082169050919050565b600073ffffffffffffffffffffffffffffffffffffffff82169050919050565b6000819050919050565b600060ff82169050919050565b82818337600083830152505050565b60005b83811015613ec5578082015181840152602081019050613eaa565b83811115613ed4576000848401525b50505050565b60006002820490506001821680613ef257607f821691505b60208210811415613f0657613f05614043565b5b50919050565b613f15826140a1565b810181811067ffffffffffffffff82111715613f3457613f33614072565b5b80604052505050565b6000613f4882613e81565b91507fffffffffffffffffffffffffffffffffffffffffffffffffffffffffffffffff821415613f7b57613f7a613fe5565b5b600182019050919050565b6000613f9182613f98565b9050919050565b6000613fa3826140b2565b9050919050565b6000819050919050565b6000613fbf82613e81565b9150613fca83613e81565b925082613fda57613fd9614014565b5b828206905092915050565b7f4e487b7100000000000000000000000000000000000000000000000000000000600052601160045260246000fd5b7f4e487b7100000000000000000000000000000000000000000000000000000000600052601260045260246000fd5b7f4e487b7100000000000000000000000000000000000000000000000000000000600052602260045260246000fd5b7f4e487b7100000000000000000000000000000000000000000000000000000000600052604160045260246000fd5b6000601f19601f8301169050919050565b60008160601b9050919050565b7f4552433732313a207472616e7366657220746f206e6f6e20455243373231526560008201527f63656976657220696d706c656d656e7465720000000000000000000000000000602082015250565b7f4f776e61626c653a206e6577206f776e657220697320746865207a65726f206160008201527f6464726573730000000000000000000000000000000000000000000000000000602082015250565b7f4552433732313a20746f6b656e20616c7265616479206d696e74656400000000600082015250565b7f4552433732313a207472616e7366657220746f20746865207a65726f2061646460008201527f7265737300000000000000000000000000000000000000000000000000000000602082015250565b7f4552433732313a20617070726f766520746f2063616c6c657200000000000000600082015250565b7f4552433732313a206f70657261746f7220717565727920666f72206e6f6e657860008201527f697374656e7420746f6b656e0000000000000000000000000000000000000000602082015250565b7f4552433732313a20617070726f76652063616c6c6572206973206e6f74206f7760008201527f6e6572206e6f7220617070726f76656420666f7220616c6c0000000000000000602082015250565b7f4552433732313a2062616c616e636520717565727920666f7220746865207a6560008201527f726f206164647265737300000000000000000000000000000000000000000000602082015250565b7f4552433732313a206f776e657220717565727920666f72206e6f6e657869737460008201527f656e7420746f6b656e0000000000000000000000000000000000000000000000602082015250565b7f4552433732313a206d696e7420746f20746865207a65726f2061646472657373600082015250565b7f4552433732313a20617070726f76656420717565727920666f72206e6f6e657860008201527f697374656e7420746f6b656e0000000000000000000000000000000000000000602082015250565b7f4f776e61626c653a2063616c6c6572206973206e6f7420746865206f776e6572600082015250565b7f4552433732313a207472616e73666572206f6620746f6b656e2074686174206960008201527f73206e6f74206f776e0000000000000000000000000000000000000000000000602082015250565b7f4552433732314d657461646174613a2055524920717565727920666f72206e6f60008201527f6e6578697374656e7420746f6b656e0000000000000000000000000000000000602082015250565b7f4552433732313a20617070726f76616c20746f2063757272656e74206f776e6560008201527f7200000000000000000000000000000000000000000000000000000000000000602082015250565b7f4552433732313a207472616e736665722063616c6c6572206973206e6f74206f60008201527f776e6572206e6f7220617070726f766564000000000000000000000000000000602082015250565b61452081613e17565b811461452b57600080fd5b50565b61453781613e29565b811461454257600080fd5b50565b61454e81613e35565b811461455957600080fd5b50565b61456581613e81565b811461457057600080fd5b5056fea26469706673582212207ff59473d965c51e1d54ec6073357ad067c68df212839ab4820fc2ac222be23064736f6c63430008010033",
  "immutableReferences": {},
  "source": "// SPDX-License-Identifier: MIT\npragma solidity ^0.8.0;\n// Importacin de los Smart Contract: ERC721.sol y Ownable.sol\nimport \"@openzeppelin/contracts/token/ERC721/ERC721.sol\";\nimport \"@openzeppelin/contracts/access/Ownable.sol\";\nimport \"@openzeppelin/contracts/utils/math/SafeMath.sol\";\n\n// Creacin del Smart Contract para el Videojuego NFT\ncontract LipToken is ERC721, Ownable {\n\n    // Constructor de mi Smart Contract\n    constructor (string memory _name, string memory _symbol)\n    ERC721(_name, _symbol) {}\n\n    // ============================================\n    // Declaraciones iniciales\n\n    // Contador de tokens NFT\n    uint256 COUNTER;\n    // Fijacin en el precio de los Tokens NFT\n    uint256 fee = 0.001 ether;\n    string sex;\n    uint level;\n    uint cant;\n    // Estructura de datos con las propiedades del lip (labio)\n    struct Lip {\n        string name;\n        uint256 id;\n        uint256 dna;\n        uint level;\n        uint8 rarity;\n        string sex;\n        uint vida;\n        uint habil;\n        uint fuerza;\n        uint defenza;\n        uint poder;\n    }\n    // Estructura de almacenamiento\n    Lip [] public lips;\n    // Declaracin de un evento \n    event NewLip(address indexed owner, uint256 id, uint256 dna);\n\n    // ============================================\n    // Funciones de ayuda \n\n    // Asignacin de un nmero aleatorio\n    function _createRandomNum(uint256 _mod) internal view returns (uint256) {\n        uint256 randomNum = uint256(keccak256(abi.encodePacked(block.timestamp, msg.sender)));\n        return randomNum % _mod; \n    }\n\n    // Actualizacin del precio del Token NFT\n    function updateFee(uint256 _fee) external onlyOwner {\n        fee = _fee;\n    }\n\n    // Extraccin de los ethers del Smart Contract hacia el Owner \n    function withdraw() external payable onlyOwner {\n        address payable _owner = payable(owner());\n        _owner.transfer(address(this).balance);\n    }\n\n    // Creacin del Token NFT (AniMons)\n    function _createLip(string memory _name, uint _cant) internal {\n        cant = _cant;                \n        uint randDna = _createRandomNum(10**16);\n        uint8 randRarity = uint8(_createRandomNum(100));\n        uint sexo = _createRandomNum(33*33);   \n         uint256  vida = block.timestamp/100000000;   \n\n\n        for (uint256 i = 0; i <= cant; i++){               \n            vida = vida*7;\n            randDna = randDna *35;\n            randRarity = randRarity*3;\n            \n        //uint256 randomNum2 = uint256(keccak256(abi.encodePacked(block.timestamp, msg.sender)));                                               \n            if(level == 0){level=1;}\n            if (sexo % 2 == 0) {sex=\"F\";} else {sex=\"M\";}\n            uint habil = 5;\n            uint fuerza = 5;\n            uint defenza = 5;\n            uint poder = 5;            \n            //uint256 vida = randomNum2/100000000;                \n        Lip memory newLip = Lip(_name, COUNTER, randDna, level, randRarity, sex, vida, habil, fuerza, defenza, poder);\n        lips.push(newLip);             \n        _safeMint(msg.sender, COUNTER);\n        emit NewLip(msg.sender, COUNTER, randDna);\n        \n        vida = vida /15;\n        randDna = randDna /25;\n        randDna= randDna * 7;\n        COUNTER++;\n        randRarity = randRarity /10;\n        randRarity = randRarity /5;\n        }\n    }\n\n    // ============================================\n    \n    \n    \n    // Creacin de un labio aleatorio\n    function createRandomLip(string memory _name, uint _cant) public payable {\n        require(msg.value >= fee);     \n        _createLip(_name, _cant);        \n    }\n    // Obtencin de todos los lips (labios)\n    function getLips() public view returns (Lip [] memory) {\n        return lips;\n    }\n\n    // Visualizar el balance del Smart Contract \n    function moneySmartContract() public view returns (uint256){\n        return address(this).balance;\n    }\n\n    // Visualizar la direccin del Smart Contract\n    function addressSmartContract() public view returns (address) {\n        return address(this);\n    }\n\n    // Obtencin de los tokens NFT usuario\n    function getOwnerLips(address _owner) public view returns (Lip [] memory) {\n        Lip [] memory result = new Lip [] (balanceOf(_owner));\n        uint256 counter = 0;\n        for (uint256 i = 0; i <lips.length; i++) {\n            if (ownerOf(i) == _owner) {\n                result[counter] = lips[i];\n                counter++;\n            }\n        }\n        return result;\n    }\n\n    // Subir de nivel los tokens NFT \n    function levelUp(uint256 _lipId) public payable {\n        require(ownerOf(_lipId) == msg.sender);\n         require(msg.value >= fee);\n        Lip storage lip = lips[_lipId];\n        lip.level++;\n    }\n\n // Subir Vida los tokens NFT \n    function vidaUp(uint256 _lipId) public payable {\n        require(ownerOf(_lipId) == msg.sender);\n         require(msg.value >= fee);\n        Lip storage lip = lips[_lipId];\n        uint auvi;\n        auvi = 15;\n        lip.vida = lip.vida + auvi;\n    }\n\n\n    \n\n    // Subir habilidad los tokens NFT \n    function habilUp(uint256 _lipId) public payable {\n        require(ownerOf(_lipId) == msg.sender);\n         require(msg.value >= fee);\n        Lip storage lip = lips[_lipId];\n        uint auvi;\n        auvi = 3;\n        lip.habil = lip.habil + auvi;\n    }\n\n    // Subir Fuerza los tokens NFT \n    function fuerzaUp(uint256 _lipId) public payable {\n        require(ownerOf(_lipId) == msg.sender);\n         require(msg.value >= fee);\n        Lip storage lip = lips[_lipId];\n        uint auvi;\n        auvi = 5;\n        lip.fuerza = lip.fuerza + auvi;\n    }\n\n    // Subir Defenza los tokens NFT \n    function defenzaUp(uint256 _lipId) public payable {\n        require(ownerOf(_lipId) == msg.sender);\n         require(msg.value >= fee);\n        Lip storage lip = lips[_lipId];\n        uint auvi;\n        auvi = 3;\n        lip.defenza = lip.defenza + auvi;\n    }\n\n    // Subir Poder los tokens NFT \n    function poderUp(uint256 _lipId) public payable {\n        require(ownerOf(_lipId) == msg.sender);\n         require(msg.value >= fee);\n        Lip storage lip = lips[_lipId];\n        uint auvi;\n        auvi = 10;\n        lip.poder = lip.poder + auvi;\n    }\n\n\n}",
  "sourcePath": "C:\\Users\\digit\\OneDrive\\Escritorio\\Ang-Tru\\contracts\\LipToken.sol",
  "compiler": {
    "name": "solc",
    "version": "0.8.1+commit.df193b15.Emscripten.clang"
  },
  "schemaVersion": "3.4.3",
  "updatedAt": "2022-01-08T18:27:34.126Z",
  "networkType": "ethereum",
  "devdoc": {
    "kind": "dev",
    "methods": {
      "approve(address,uint256)": {
        "details": "See {IERC721-approve}."
      },
      "balanceOf(address)": {
        "details": "See {IERC721-balanceOf}."
      },
      "getApproved(uint256)": {
        "details": "See {IERC721-getApproved}."
      },
      "isApprovedForAll(address,address)": {
        "details": "See {IERC721-isApprovedForAll}."
      },
      "name()": {
        "details": "See {IERC721Metadata-name}."
      },
      "owner()": {
        "details": "Returns the address of the current owner."
      },
      "ownerOf(uint256)": {
        "details": "See {IERC721-ownerOf}."
      },
      "renounceOwnership()": {
        "details": "Leaves the contract without owner. It will not be possible to call `onlyOwner` functions anymore. Can only be called by the current owner. NOTE: Renouncing ownership will leave the contract without an owner, thereby removing any functionality that is only available to the owner."
      },
      "safeTransferFrom(address,address,uint256)": {
        "details": "See {IERC721-safeTransferFrom}."
      },
      "safeTransferFrom(address,address,uint256,bytes)": {
        "details": "See {IERC721-safeTransferFrom}."
      },
      "setApprovalForAll(address,bool)": {
        "details": "See {IERC721-setApprovalForAll}."
      },
      "supportsInterface(bytes4)": {
        "details": "See {IERC165-supportsInterface}."
      },
      "symbol()": {
        "details": "See {IERC721Metadata-symbol}."
      },
      "tokenURI(uint256)": {
        "details": "See {IERC721Metadata-tokenURI}."
      },
      "transferFrom(address,address,uint256)": {
        "details": "See {IERC721-transferFrom}."
      },
      "transferOwnership(address)": {
        "details": "Transfers ownership of the contract to a new account (`newOwner`). Can only be called by the current owner."
      }
    },
    "version": 1
  },
  "userdoc": {
    "kind": "user",
    "methods": {},
    "version": 1
  }
}